{"abi":[{"type":"constructor","inputs":[],"stateMutability":"nonpayable"},{"type":"receive","stateMutability":"payable"},{"type":"function","name":"BPS_DENOMINATOR","inputs":[],"outputs":[{"name":"","type":"uint256","internalType":"uint256"}],"stateMutability":"view"},{"type":"function","name":"DEFAULT_ADMIN_ROLE","inputs":[],"outputs":[{"name":"","type":"bytes32","internalType":"bytes32"}],"stateMutability":"view"},{"type":"function","name":"FEE_MANAGER_ROLE","inputs":[],"outputs":[{"name":"","type":"bytes32","internalType":"bytes32"}],"stateMutability":"view"},{"type":"function","name":"MAX_BUNDLE_SIZE","inputs":[],"outputs":[{"name":"","type":"uint256","internalType":"uint256"}],"stateMutability":"view"},{"type":"function","name":"MAX_PLATFORM_FEE_BPS","inputs":[],"outputs":[{"name":"","type":"uint256","internalType":"uint256"}],"stateMutability":"view"},{"type":"function","name":"PAUSER_ROLE","inputs":[],"outputs":[{"name":"","type":"bytes32","internalType":"bytes32"}],"stateMutability":"view"},{"type":"function","name":"TOKEN_MANAGER_ROLE","inputs":[],"outputs":[{"name":"","type":"bytes32","internalType":"bytes32"}],"stateMutability":"view"},{"type":"function","name":"UPGRADE_INTERFACE_VERSION","inputs":[],"outputs":[{"name":"","type":"string","internalType":"string"}],"stateMutability":"view"},{"type":"function","name":"acceptCollectionOffer","inputs":[{"name":"offerId","type":"uint256","internalType":"uint256"},{"name":"tokenId","type":"uint256","internalType":"uint256"}],"outputs":[],"stateMutability":"nonpayable"},{"type":"function","name":"acceptOffer","inputs":[{"name":"offerId","type":"uint256","internalType":"uint256"}],"outputs":[],"stateMutability":"nonpayable"},{"type":"function","name":"addPaymentToken","inputs":[{"name":"token","type":"address","internalType":"address"}],"outputs":[],"stateMutability":"nonpayable"},{"type":"function","name":"bid","inputs":[{"name":"auctionId","type":"uint256","internalType":"uint256"},{"name":"amount","type":"uint256","internalType":"uint256"}],"outputs":[],"stateMutability":"payable"},{"type":"function","name":"buy","inputs":[{"name":"listingId","type":"uint256","internalType":"uint256"}],"outputs":[],"stateMutability":"payable"},{"type":"function","name":"buyBundle","inputs":[{"name":"bundleId","type":"uint256","internalType":"uint256"}],"outputs":[],"stateMutability":"payable"},{"type":"function","name":"buyDutchAuction","inputs":[{"name":"auctionId","type":"uint256","internalType":"uint256"}],"outputs":[],"stateMutability":"payable"},{"type":"function","name":"cancelAuction","inputs":[{"name":"auctionId","type":"uint256","internalType":"uint256"}],"outputs":[],"stateMutability":"nonpayable"},{"type":"function","name":"cancelBundleListing","inputs":[{"name":"bundleId","type":"uint256","internalType":"uint256"}],"outputs":[],"stateMutability":"nonpayable"},{"type":"function","name":"cancelCollectionOffer","inputs":[{"name":"offerId","type":"uint256","internalType":"uint256"}],"outputs":[],"stateMutability":"nonpayable"},{"type":"function","name":"cancelDutchAuction","inputs":[{"name":"auctionId","type":"uint256","internalType":"uint256"}],"outputs":[],"stateMutability":"nonpayable"},{"type":"function","name":"cancelListing","inputs":[{"name":"listingId","type":"uint256","internalType":"uint256"}],"outputs":[],"stateMutability":"nonpayable"},{"type":"function","name":"cancelOffer","inputs":[{"name":"offerId","type":"uint256","internalType":"uint256"}],"outputs":[],"stateMutability":"nonpayable"},{"type":"function","name":"createAuction","inputs":[{"name":"nftContract","type":"address","internalType":"address"},{"name":"tokenId","type":"uint256","internalType":"uint256"},{"name":"paymentToken","type":"address","internalType":"address"},{"name":"startPrice","type":"uint256","internalType":"uint256"},{"name":"reservePrice","type":"uint256","internalType":"uint256"},{"name":"buyNowPrice","type":"uint256","internalType":"uint256"},{"name":"startTime","type":"uint256","internalType":"uint256"},{"name":"duration","type":"uint256","internalType":"uint256"}],"outputs":[{"name":"auctionId","type":"uint256","internalType":"uint256"}],"stateMutability":"nonpayable"},{"type":"function","name":"createBundleListing","inputs":[{"name":"nftContracts","type":"address[]","internalType":"address[]"},{"name":"tokenIds","type":"uint256[]","internalType":"uint256[]"},{"name":"paymentToken","type":"address","internalType":"address"},{"name":"price","type":"uint256","internalType":"uint256"},{"name":"expiry","type":"uint256","internalType":"uint256"}],"outputs":[{"name":"bundleId","type":"uint256","internalType":"uint256"}],"stateMutability":"nonpayable"},{"type":"function","name":"createDutchAuction","inputs":[{"name":"nftContract","type":"address","internalType":"address"},{"name":"tokenId","type":"uint256","internalType":"uint256"},{"name":"paymentToken","type":"address","internalType":"address"},{"name":"startPrice","type":"uint256","internalType":"uint256"},{"name":"endPrice","type":"uint256","internalType":"uint256"},{"name":"duration","type":"uint256","internalType":"uint256"}],"outputs":[{"name":"auctionId","type":"uint256","internalType":"uint256"}],"stateMutability":"nonpayable"},{"type":"function","name":"feeRecipient","inputs":[],"outputs":[{"name":"","type":"address","internalType":"address"}],"stateMutability":"view"},{"type":"function","name":"getAuction","inputs":[{"name":"auctionId","type":"uint256","internalType":"uint256"}],"outputs":[{"name":"","type":"tuple","internalType":"struct IMoltMarketplace.Auction","components":[{"name":"seller","type":"address","internalType":"address"},{"name":"nftContract","type":"address","internalType":"address"},{"name":"tokenId","type":"uint256","internalType":"uint256"},{"name":"paymentToken","type":"address","internalType":"address"},{"name":"startPrice","type":"uint256","internalType":"uint256"},{"name":"reservePrice","type":"uint256","internalType":"uint256"},{"name":"buyNowPrice","type":"uint256","internalType":"uint256"},{"name":"highestBid","type":"uint256","internalType":"uint256"},{"name":"highestBidder","type":"address","internalType":"address"},{"name":"startTime","type":"uint256","internalType":"uint256"},{"name":"endTime","type":"uint256","internalType":"uint256"},{"name":"bidCount","type":"uint256","internalType":"uint256"},{"name":"status","type":"uint8","internalType":"enum IMoltMarketplace.AuctionStatus"}]}],"stateMutability":"view"},{"type":"function","name":"getBundleListing","inputs":[{"name":"bundleId","type":"uint256","internalType":"uint256"}],"outputs":[{"name":"","type":"tuple","internalType":"struct IMoltMarketplace.BundleListing","components":[{"name":"seller","type":"address","internalType":"address"},{"name":"nftContracts","type":"address[]","internalType":"address[]"},{"name":"tokenIds","type":"uint256[]","internalType":"uint256[]"},{"name":"paymentToken","type":"address","internalType":"address"},{"name":"price","type":"uint256","internalType":"uint256"},{"name":"expiry","type":"uint256","internalType":"uint256"},{"name":"status","type":"uint8","internalType":"enum IMoltMarketplace.ListingStatus"}]}],"stateMutability":"view"},{"type":"function","name":"getCollectionOffer","inputs":[{"name":"offerId","type":"uint256","internalType":"uint256"}],"outputs":[{"name":"","type":"tuple","internalType":"struct IMoltMarketplace.CollectionOffer","components":[{"name":"offerer","type":"address","internalType":"address"},{"name":"nftContract","type":"address","internalType":"address"},{"name":"paymentToken","type":"address","internalType":"address"},{"name":"amount","type":"uint256","internalType":"uint256"},{"name":"expiry","type":"uint256","internalType":"uint256"},{"name":"status","type":"uint8","internalType":"enum IMoltMarketplace.OfferStatus"}]}],"stateMutability":"view"},{"type":"function","name":"getDutchAuction","inputs":[{"name":"auctionId","type":"uint256","internalType":"uint256"}],"outputs":[{"name":"","type":"tuple","internalType":"struct IMoltMarketplace.DutchAuction","components":[{"name":"seller","type":"address","internalType":"address"},{"name":"nftContract","type":"address","internalType":"address"},{"name":"tokenId","type":"uint256","internalType":"uint256"},{"name":"paymentToken","type":"address","internalType":"address"},{"name":"startPrice","type":"uint256","internalType":"uint256"},{"name":"endPrice","type":"uint256","internalType":"uint256"},{"name":"startTime","type":"uint256","internalType":"uint256"},{"name":"endTime","type":"uint256","internalType":"uint256"},{"name":"status","type":"uint8","internalType":"enum IMoltMarketplace.DutchAuctionStatus"}]}],"stateMutability":"view"},{"type":"function","name":"getDutchAuctionCurrentPrice","inputs":[{"name":"auctionId","type":"uint256","internalType":"uint256"}],"outputs":[{"name":"","type":"uint256","internalType":"uint256"}],"stateMutability":"view"},{"type":"function","name":"getListing","inputs":[{"name":"listingId","type":"uint256","internalType":"uint256"}],"outputs":[{"name":"","type":"tuple","internalType":"struct IMoltMarketplace.Listing","components":[{"name":"seller","type":"address","internalType":"address"},{"name":"nftContract","type":"address","internalType":"address"},{"name":"tokenId","type":"uint256","internalType":"uint256"},{"name":"paymentToken","type":"address","internalType":"address"},{"name":"price","type":"uint256","internalType":"uint256"},{"name":"expiry","type":"uint256","internalType":"uint256"},{"name":"status","type":"uint8","internalType":"enum IMoltMarketplace.ListingStatus"}]}],"stateMutability":"view"},{"type":"function","name":"getOffer","inputs":[{"name":"offerId","type":"uint256","internalType":"uint256"}],"outputs":[{"name":"","type":"tuple","internalType":"struct IMoltMarketplace.Offer","components":[{"name":"offerer","type":"address","internalType":"address"},{"name":"nftContract","type":"address","internalType":"address"},{"name":"tokenId","type":"uint256","internalType":"uint256"},{"name":"paymentToken","type":"address","internalType":"address"},{"name":"amount","type":"uint256","internalType":"uint256"},{"name":"expiry","type":"uint256","internalType":"uint256"},{"name":"status","type":"uint8","internalType":"enum IMoltMarketplace.OfferStatus"}]}],"stateMutability":"view"},{"type":"function","name":"getRoleAdmin","inputs":[{"name":"role","type":"bytes32","internalType":"bytes32"}],"outputs":[{"name":"","type":"bytes32","internalType":"bytes32"}],"stateMutability":"view"},{"type":"function","name":"grantRole","inputs":[{"name":"role","type":"bytes32","internalType":"bytes32"},{"name":"account","type":"address","internalType":"address"}],"outputs":[],"stateMutability":"nonpayable"},{"type":"function","name":"hasRole","inputs":[{"name":"role","type":"bytes32","internalType":"bytes32"},{"name":"account","type":"address","internalType":"address"}],"outputs":[{"name":"","type":"bool","internalType":"bool"}],"stateMutability":"view"},{"type":"function","name":"initialize","inputs":[{"name":"initialAdmin","type":"address","internalType":"address"},{"name":"_feeRecipient","type":"address","internalType":"address"},{"name":"_platformFeeBps","type":"uint256","internalType":"uint256"}],"outputs":[],"stateMutability":"nonpayable"},{"type":"function","name":"isPaymentTokenAllowed","inputs":[{"name":"token","type":"address","internalType":"address"}],"outputs":[{"name":"","type":"bool","internalType":"bool"}],"stateMutability":"view"},{"type":"function","name":"list","inputs":[{"name":"nftContract","type":"address","internalType":"address"},{"name":"tokenId","type":"uint256","internalType":"uint256"},{"name":"paymentToken","type":"address","internalType":"address"},{"name":"price","type":"uint256","internalType":"uint256"},{"name":"expiry","type":"uint256","internalType":"uint256"}],"outputs":[{"name":"listingId","type":"uint256","internalType":"uint256"}],"stateMutability":"nonpayable"},{"type":"function","name":"makeCollectionOffer","inputs":[{"name":"nftContract","type":"address","internalType":"address"},{"name":"paymentToken","type":"address","internalType":"address"},{"name":"amount","type":"uint256","internalType":"uint256"},{"name":"expiry","type":"uint256","internalType":"uint256"}],"outputs":[{"name":"offerId","type":"uint256","internalType":"uint256"}],"stateMutability":"nonpayable"},{"type":"function","name":"makeOffer","inputs":[{"name":"nftContract","type":"address","internalType":"address"},{"name":"tokenId","type":"uint256","internalType":"uint256"},{"name":"paymentToken","type":"address","internalType":"address"},{"name":"amount","type":"uint256","internalType":"uint256"},{"name":"expiry","type":"uint256","internalType":"uint256"}],"outputs":[{"name":"offerId","type":"uint256","internalType":"uint256"}],"stateMutability":"nonpayable"},{"type":"function","name":"onERC721Received","inputs":[{"name":"","type":"address","internalType":"address"},{"name":"","type":"address","internalType":"address"},{"name":"","type":"uint256","internalType":"uint256"},{"name":"","type":"bytes","internalType":"bytes"}],"outputs":[{"name":"","type":"bytes4","internalType":"bytes4"}],"stateMutability":"pure"},{"type":"function","name":"pause","inputs":[],"outputs":[],"stateMutability":"nonpayable"},{"type":"function","name":"paused","inputs":[],"outputs":[{"name":"","type":"bool","internalType":"bool"}],"stateMutability":"view"},{"type":"function","name":"pendingWithdrawals","inputs":[{"name":"","type":"address","internalType":"address"}],"outputs":[{"name":"","type":"uint256","internalType":"uint256"}],"stateMutability":"view"},{"type":"function","name":"platformFeeBps","inputs":[],"outputs":[{"name":"","type":"uint256","internalType":"uint256"}],"stateMutability":"view"},{"type":"function","name":"proxiableUUID","inputs":[],"outputs":[{"name":"","type":"bytes32","internalType":"bytes32"}],"stateMutability":"view"},{"type":"function","name":"removePaymentToken","inputs":[{"name":"token","type":"address","internalType":"address"}],"outputs":[],"stateMutability":"nonpayable"},{"type":"function","name":"renounceRole","inputs":[{"name":"role","type":"bytes32","internalType":"bytes32"},{"name":"callerConfirmation","type":"address","internalType":"address"}],"outputs":[],"stateMutability":"nonpayable"},{"type":"function","name":"revokeRole","inputs":[{"name":"role","type":"bytes32","internalType":"bytes32"},{"name":"account","type":"address","internalType":"address"}],"outputs":[],"stateMutability":"nonpayable"},{"type":"function","name":"setFeeRecipient","inputs":[{"name":"newRecipient","type":"address","internalType":"address"}],"outputs":[],"stateMutability":"nonpayable"},{"type":"function","name":"setPlatformFee","inputs":[{"name":"newFeeBps","type":"uint256","internalType":"uint256"}],"outputs":[],"stateMutability":"nonpayable"},{"type":"function","name":"settleAuction","inputs":[{"name":"auctionId","type":"uint256","internalType":"uint256"}],"outputs":[],"stateMutability":"nonpayable"},{"type":"function","name":"supportsInterface","inputs":[{"name":"interfaceId","type":"bytes4","internalType":"bytes4"}],"outputs":[{"name":"","type":"bool","internalType":"bool"}],"stateMutability":"view"},{"type":"function","name":"unpause","inputs":[],"outputs":[],"stateMutability":"nonpayable"},{"type":"function","name":"updateListingPrice","inputs":[{"name":"listingId","type":"uint256","internalType":"uint256"},{"name":"newPrice","type":"uint256","internalType":"uint256"}],"outputs":[],"stateMutability":"nonpayable"},{"type":"function","name":"upgradeToAndCall","inputs":[{"name":"newImplementation","type":"address","internalType":"address"},{"name":"data","type":"bytes","internalType":"bytes"}],"outputs":[],"stateMutability":"payable"},{"type":"function","name":"withdrawPending","inputs":[],"outputs":[],"stateMutability":"nonpayable"},{"type":"event","name":"AuctionBuyNow","inputs":[{"name":"auctionId","type":"uint256","indexed":true,"internalType":"uint256"},{"name":"buyer","type":"address","indexed":true,"internalType":"address"},{"name":"price","type":"uint256","indexed":false,"internalType":"uint256"}],"anonymous":false},{"type":"event","name":"AuctionCancelled","inputs":[{"name":"auctionId","type":"uint256","indexed":true,"internalType":"uint256"}],"anonymous":false},{"type":"event","name":"AuctionCreated","inputs":[{"name":"auctionId","type":"uint256","indexed":true,"internalType":"uint256"},{"name":"seller","type":"address","indexed":true,"internalType":"address"},{"name":"nftContract","type":"address","indexed":true,"internalType":"address"},{"name":"tokenId","type":"uint256","indexed":false,"internalType":"uint256"},{"name":"paymentToken","type":"address","indexed":false,"internalType":"address"},{"name":"startPrice","type":"uint256","indexed":false,"internalType":"uint256"},{"name":"reservePrice","type":"uint256","indexed":false,"internalType":"uint256"},{"name":"buyNowPrice","type":"uint256","indexed":false,"internalType":"uint256"},{"name":"startTime","type":"uint256","indexed":false,"internalType":"uint256"},{"name":"endTime","type":"uint256","indexed":false,"internalType":"uint256"}],"anonymous":false},{"type":"event","name":"AuctionExtended","inputs":[{"name":"auctionId","type":"uint256","indexed":true,"internalType":"uint256"},{"name":"newEndTime","type":"uint256","indexed":false,"internalType":"uint256"}],"anonymous":false},{"type":"event","name":"AuctionReserveNotMet","inputs":[{"name":"auctionId","type":"uint256","indexed":true,"internalType":"uint256"},{"name":"highestBid","type":"uint256","indexed":false,"internalType":"uint256"},{"name":"reservePrice","type":"uint256","indexed":false,"internalType":"uint256"}],"anonymous":false},{"type":"event","name":"AuctionSettled","inputs":[{"name":"auctionId","type":"uint256","indexed":true,"internalType":"uint256"},{"name":"winner","type":"address","indexed":true,"internalType":"address"},{"name":"amount","type":"uint256","indexed":false,"internalType":"uint256"}],"anonymous":false},{"type":"event","name":"BidPlaced","inputs":[{"name":"auctionId","type":"uint256","indexed":true,"internalType":"uint256"},{"name":"bidder","type":"address","indexed":true,"internalType":"address"},{"name":"amount","type":"uint256","indexed":false,"internalType":"uint256"}],"anonymous":false},{"type":"event","name":"Bought","inputs":[{"name":"listingId","type":"uint256","indexed":true,"internalType":"uint256"},{"name":"buyer","type":"address","indexed":true,"internalType":"address"},{"name":"price","type":"uint256","indexed":false,"internalType":"uint256"}],"anonymous":false},{"type":"event","name":"BundleBought","inputs":[{"name":"bundleId","type":"uint256","indexed":true,"internalType":"uint256"},{"name":"buyer","type":"address","indexed":true,"internalType":"address"},{"name":"price","type":"uint256","indexed":false,"internalType":"uint256"}],"anonymous":false},{"type":"event","name":"BundleListed","inputs":[{"name":"bundleId","type":"uint256","indexed":true,"internalType":"uint256"},{"name":"seller","type":"address","indexed":true,"internalType":"address"},{"name":"itemCount","type":"uint256","indexed":false,"internalType":"uint256"},{"name":"paymentToken","type":"address","indexed":false,"internalType":"address"},{"name":"price","type":"uint256","indexed":false,"internalType":"uint256"},{"name":"expiry","type":"uint256","indexed":false,"internalType":"uint256"}],"anonymous":false},{"type":"event","name":"BundleListingCancelled","inputs":[{"name":"bundleId","type":"uint256","indexed":true,"internalType":"uint256"}],"anonymous":false},{"type":"event","name":"CollectionOfferAccepted","inputs":[{"name":"offerId","type":"uint256","indexed":true,"internalType":"uint256"},{"name":"seller","type":"address","indexed":true,"internalType":"address"},{"name":"tokenId","type":"uint256","indexed":false,"internalType":"uint256"}],"anonymous":false},{"type":"event","name":"CollectionOfferCancelled","inputs":[{"name":"offerId","type":"uint256","indexed":true,"internalType":"uint256"}],"anonymous":false},{"type":"event","name":"CollectionOfferMade","inputs":[{"name":"offerId","type":"uint256","indexed":true,"internalType":"uint256"},{"name":"offerer","type":"address","indexed":true,"internalType":"address"},{"name":"nftContract","type":"address","indexed":true,"internalType":"address"},{"name":"paymentToken","type":"address","indexed":false,"internalType":"address"},{"name":"amount","type":"uint256","indexed":false,"internalType":"uint256"},{"name":"expiry","type":"uint256","indexed":false,"internalType":"uint256"}],"anonymous":false},{"type":"event","name":"DutchAuctionBought","inputs":[{"name":"auctionId","type":"uint256","indexed":true,"internalType":"uint256"},{"name":"buyer","type":"address","indexed":true,"internalType":"address"},{"name":"price","type":"uint256","indexed":false,"internalType":"uint256"}],"anonymous":false},{"type":"event","name":"DutchAuctionCancelled","inputs":[{"name":"auctionId","type":"uint256","indexed":true,"internalType":"uint256"}],"anonymous":false},{"type":"event","name":"DutchAuctionCreated","inputs":[{"name":"auctionId","type":"uint256","indexed":true,"internalType":"uint256"},{"name":"seller","type":"address","indexed":true,"internalType":"address"},{"name":"nftContract","type":"address","indexed":true,"internalType":"address"},{"name":"tokenId","type":"uint256","indexed":false,"internalType":"uint256"},{"name":"paymentToken","type":"address","indexed":false,"internalType":"address"},{"name":"startPrice","type":"uint256","indexed":false,"internalType":"uint256"},{"name":"endPrice","type":"uint256","indexed":false,"internalType":"uint256"},{"name":"startTime","type":"uint256","indexed":false,"internalType":"uint256"},{"name":"endTime","type":"uint256","indexed":false,"internalType":"uint256"}],"anonymous":false},{"type":"event","name":"FeeRecipientUpdated","inputs":[{"name":"oldRecipient","type":"address","indexed":false,"internalType":"address"},{"name":"newRecipient","type":"address","indexed":false,"internalType":"address"}],"anonymous":false},{"type":"event","name":"Initialized","inputs":[{"name":"version","type":"uint64","indexed":false,"internalType":"uint64"}],"anonymous":false},{"type":"event","name":"Listed","inputs":[{"name":"listingId","type":"uint256","indexed":true,"internalType":"uint256"},{"name":"seller","type":"address","indexed":true,"internalType":"address"},{"name":"nftContract","type":"address","indexed":true,"internalType":"address"},{"name":"tokenId","type":"uint256","indexed":false,"internalType":"uint256"},{"name":"paymentToken","type":"address","indexed":false,"internalType":"address"},{"name":"price","type":"uint256","indexed":false,"internalType":"uint256"},{"name":"expiry","type":"uint256","indexed":false,"internalType":"uint256"}],"anonymous":false},{"type":"event","name":"ListingCancelled","inputs":[{"name":"listingId","type":"uint256","indexed":true,"internalType":"uint256"}],"anonymous":false},{"type":"event","name":"ListingPriceUpdated","inputs":[{"name":"listingId","type":"uint256","indexed":true,"internalType":"uint256"},{"name":"oldPrice","type":"uint256","indexed":false,"internalType":"uint256"},{"name":"newPrice","type":"uint256","indexed":false,"internalType":"uint256"}],"anonymous":false},{"type":"event","name":"OfferAccepted","inputs":[{"name":"offerId","type":"uint256","indexed":true,"internalType":"uint256"},{"name":"seller","type":"address","indexed":true,"internalType":"address"}],"anonymous":false},{"type":"event","name":"OfferCancelled","inputs":[{"name":"offerId","type":"uint256","indexed":true,"internalType":"uint256"}],"anonymous":false},{"type":"event","name":"OfferMade","inputs":[{"name":"offerId","type":"uint256","indexed":true,"internalType":"uint256"},{"name":"offerer","type":"address","indexed":true,"internalType":"address"},{"name":"nftContract","type":"address","indexed":true,"internalType":"address"},{"name":"tokenId","type":"uint256","indexed":false,"internalType":"uint256"},{"name":"paymentToken","type":"address","indexed":false,"internalType":"address"},{"name":"amount","type":"uint256","indexed":false,"internalType":"uint256"},{"name":"expiry","type":"uint256","indexed":false,"internalType":"uint256"}],"anonymous":false},{"type":"event","name":"Paused","inputs":[{"name":"account","type":"address","indexed":false,"internalType":"address"}],"anonymous":false},{"type":"event","name":"PaymentTokenAdded","inputs":[{"name":"token","type":"address","indexed":true,"internalType":"address"}],"anonymous":false},{"type":"event","name":"PaymentTokenRemoved","inputs":[{"name":"token","type":"address","indexed":true,"internalType":"address"}],"anonymous":false},{"type":"event","name":"PlatformFeeUpdated","inputs":[{"name":"oldFee","type":"uint256","indexed":false,"internalType":"uint256"},{"name":"newFee","type":"uint256","indexed":false,"internalType":"uint256"}],"anonymous":false},{"type":"event","name":"RefundEscrowed","inputs":[{"name":"recipient","type":"address","indexed":true,"internalType":"address"},{"name":"amount","type":"uint256","indexed":false,"internalType":"uint256"}],"anonymous":false},{"type":"event","name":"RoleAdminChanged","inputs":[{"name":"role","type":"bytes32","indexed":true,"internalType":"bytes32"},{"name":"previousAdminRole","type":"bytes32","indexed":true,"internalType":"bytes32"},{"name":"newAdminRole","type":"bytes32","indexed":true,"internalType":"bytes32"}],"anonymous":false},{"type":"event","name":"RoleGranted","inputs":[{"name":"role","type":"bytes32","indexed":true,"internalType":"bytes32"},{"name":"account","type":"address","indexed":true,"internalType":"address"},{"name":"sender","type":"address","indexed":true,"internalType":"address"}],"anonymous":false},{"type":"event","name":"RoleRevoked","inputs":[{"name":"role","type":"bytes32","indexed":true,"internalType":"bytes32"},{"name":"account","type":"address","indexed":true,"internalType":"address"},{"name":"sender","type":"address","indexed":true,"internalType":"address"}],"anonymous":false},{"type":"event","name":"Unpaused","inputs":[{"name":"account","type":"address","indexed":false,"internalType":"address"}],"anonymous":false},{"type":"event","name":"Upgraded","inputs":[{"name":"implementation","type":"address","indexed":true,"internalType":"address"}],"anonymous":false},{"type":"error","name":"AccessControlBadConfirmation","inputs":[]},{"type":"error","name":"AccessControlUnauthorizedAccount","inputs":[{"name":"account","type":"address","internalType":"address"},{"name":"neededRole","type":"bytes32","internalType":"bytes32"}]},{"type":"error","name":"AddressEmptyCode","inputs":[{"name":"target","type":"address","internalType":"address"}]},{"type":"error","name":"ERC1967InvalidImplementation","inputs":[{"name":"implementation","type":"address","internalType":"address"}]},{"type":"error","name":"ERC1967NonPayable","inputs":[]},{"type":"error","name":"EnforcedPause","inputs":[]},{"type":"error","name":"ExpectedPause","inputs":[]},{"type":"error","name":"FailedCall","inputs":[]},{"type":"error","name":"InvalidInitialization","inputs":[]},{"type":"error","name":"NotInitializing","inputs":[]},{"type":"error","name":"ReentrancyGuardReentrantCall","inputs":[]},{"type":"error","name":"SafeERC20FailedOperation","inputs":[{"name":"token","type":"address","internalType":"address"}]},{"type":"error","name":"UUPSUnauthorizedCallContext","inputs":[]},{"type":"error","name":"UUPSUnsupportedProxiableUUID","inputs":[{"name":"slot","type":"bytes32","internalType":"bytes32"}]}],"bytecode":{"object":"0x60a080604052346100e65760017f9b779b17422d0df92223018b32b4d1fa46e071723d6817e2486d003becc55f0055306080525f5160206155835f395f51905f525460ff8160401c166100d7576002600160401b03196001600160401b03821601610084575b60405161549890816100eb8239608051818181611fab01526120780152f35b6001600160401b0319166001600160401b039081175f5160206155835f395f51905f525581527fc7f505b2f371ae2175ee4913f4499e1f2633a7b5936321eed1cdaeb6115181d290602090a15f80610065565b63f92ee8a960e01b5f5260045ffd5b5f80fdfe608080604052600436101561001c575b50361561001a575f80fd5b005b5f905f3560e01c90816301ffc9a714613c635750806305db2f4114613c29578063107a274a14613bf257806312e8e2c314613b905780631387c2b514613919578063150b7a02146138aa5780631794bb3c1461369b5780631be662841461365e57806322dcd13e14613641578063248a9ca31461360257806325481f5f1461345457806327bd6a7e146131be5780632e5a4bde146131a25780632e99361114612edf5780632eb46ba514612cad5780632f2ff15d14612c62578063305a67a814612b6557806336568abe14612b205780633f4ba83a14612aa05780634579268a146129b1578063469048401461298a57806348ba028b146124e35780634a7dc8e0146124245780634ca04c0d146122455780634f1ef28614611fff57806352d1902d14611f98578063598647f814611f755780635b5a2fc114611f095780635c975abb14611eda57806378bd793514611d0f5780637edbceb114611c7c5780638456cb5914611c095780638d01513c14611bec5780638de1de7114611bad57806391d1485414611b5757806396b5a75514611a155780639a19d603146118c85780639b44d86c1461178d578063a217fddf14611771578063a5125421146116c3578063ad3cb1cc14611667578063c2840e601461162c578063c4604943146115a2578063c815729d146113b1578063d3dd4ba814610fac578063d547741f14610f58578063d96a094a14610d82578063dd9d82b414610b3e578063ddee843314610a2e578063e1a4521814610a11578063e63ab1e9146109d6578063e74b981b1461094c578063ef10eb3f14610692578063ef706adf1461060f578063f3db41fb146103cd578063f3f43703146103945763ff0d92c60361000f57346103915760203660031901126103915760408160c09260a083516102bb81613e05565b828152826020820152828582015282606082015282608082015201526004358152600a60205220604051906102ef82613e05565b80546001600160a01b039081168352600182015481166020840190815260028301549091166040840190815260038301546060850190815260048401546080860190815260059094015460a0860194939192919060ff1661034f81613cb6565b85526040805196516001600160a01b039081168852915182166020880152915116908501525160608401525160808301525161038a81613cb6565b60a0820152f35b80fd5b5034610391576020366003190112610391576020906040906001600160a01b036103bc613cd4565b168152600f83522054604051908152f35b5034610391576103dc36613d16565b6103e7929192614a00565b6103ef614a38565b6001600160a01b03821694851580156105f9575b61040c90613ed0565b61041784151561427c565b610422428311613f51565b6001600160a01b031694853b156105ea576040516323b872dd60e01b815287818061045289303360048501614147565b0381838b5af180156105ee576105d5575b6020600688888b7f460ce49faebaba1c0cd745e325add52dfd408164ec39a634ff2ece24921da8d78a8a6105b98b61058a8c6002549a8b80996104a58261405f565b6002558c604051946104b686613d9e565b338652602086019182528d604087019081526060870191825260808701928c8452604060a08901958b875260c08a01978189528152602060089052209760018060a01b039060018060a01b03905116166001600160601b0360a01b89541617885560018060a01b03905116600188019060018060a01b03166001600160601b0360a01b82541617905551600287015560018060a01b03905116600386019060018060a01b03166001600160601b0360a01b825416179055516004850155516005840155519161058483613cb6565b01614081565b604080519788526001600160a01b03909316602088015291860192909252606085015233939081906080820190565b0390a460015f5160206154235f395f51905f5255604051908152f35b6105e0888092613e20565b6105ea575f610463565b8680fd5b6040513d8a823e3d90fd5b50858752600e602052604087205460ff16610403565b5034610391576020366003190112610391576004358082526009602052604082206002600682019161066483549161065360ff841661064d81613cb6565b156140d4565b546001600160a01b0316331461480c565b60ff19161790557fc28b4aed030bfacc245c0501326e1beb8c0ef0d60e4edc21067fdeb52da2a7aa8280a280f35b5034610391576080366003190112610391576106ac613cd4565b906106b5613cea565b9160443592606435906106c6614a00565b6106ce614a38565b6001600160a01b03169061070a821580159081610936575b6106ef90613ed0565b6106fa871515613f10565b610705428411613f51565b613f92565b6040516370a0823160e01b8152336004820152602081602481865afa80156108f55786908690610900575b61074192501015613fd7565b604051636eb1769f60e11b815233600482015230602482015294602086604481865afa9586156108f55785966108bb575b5061078181602097101561401a565b61086c600454956107918761405f565b600455600587604051926107a484613e05565b3384528a84019860018060a01b031698898152604085018981526060860191888352604060808801948b865260a089019681885281528f600a9052209660018060a01b039060018060a01b03905116166001600160601b0360a01b88541617875560018060a01b03905116600187019060018060a01b03166001600160601b0360a01b82541617905560018060a01b03905116600286019060018060a01b03166001600160601b0360a01b825416179055516003850155516004840155519161058483613cb6565b604051928352858301526040820152827f4364d0f8965f28d2877291e90bf888f21f6a41e9b236892996909da8c8cb688560603393a460015f5160206154235f395f51905f5255604051908152f35b95506020863d6020116108ed575b816108d660209383613e20565b810103126108e957945194610781610772565b5f80fd5b3d91506108c9565b6040513d87823e3d90fd5b50506020813d60201161092e575b8161091b60209383613e20565b810103126108e957856107419151610735565b3d915061090e565b50838652600e602052604086205460ff166106e6565b5034610391576020366003190112610391577faaebcf1bfa00580e41d966056b48521fa9f202645c86d4ddf28113e617c1b1d3610987613cd4565b61098f61486d565b6001600160a01b0381166109a4811515614099565b83546001600160a01b03198116919091178455604080516001600160a01b03928316815292909116602083015290a180f35b503461039157806003193601126103915760206040517f65d7a28e3265b37a6474929f336521b332c1681b933f6cb9f3376673440d862a8152f35b503461039157806003193601126103915760206040516127108152f35b503461039157602036600319011261039157600435610a4b614a00565b808252600c60205281604081206008810160028154610a7060ff821661064d81613cb6565b610a8460018060a01b038554163314614243565b60ff19161790556001810154600290910154906001600160a01b0316803b15610b3a576040516323b872dd60e01b81529183918391829084908290610ace90333060048501614147565b03925af18015610b2f57610b16575b50807f2e78756868081fae5204bbe1e151c8934c2d7dcf6f4cdba38a18c3ee09f9767091a260015f5160206154235f395f51905f525580f35b81610b2091613e20565b610b2b57815f610add565b5080fd5b6040513d84823e3d90fd5b8280fd5b50602036600319011261039157600435610b56614a00565b610b5e614a38565b808252600d602052604082206006810190815491610b8260ff841661064d81613cb6565b60058201544211610d4c5781546001600160a01b03163314610d0f576001859360ff1916179055600381019060018060a01b0382541693610bca600483019586549033614e77565b610c236001830192610bdb84614846565b9054600283019660039290921b1c6001600160a01b03169190610bfd87614846565b90549060031b1c9160018060a01b039054169060018060a01b0390541691895493614f0a565b835b8254811015610cca57610c388184614858565b905460039190911b1c6001600160a01b0316610c548286614858565b90549060031b1c90803b156105ea576040516323b872dd60e01b81529187918391829084908290610c8a90333060048501614147565b03925af1908115610cbf578691610ca6575b5050600101610c25565b81610cb091613e20565b610cbb57845f610c9c565b8480fd5b6040513d88823e3d90fd5b84828754906040519182527fe3606c4aab4cb32873a13340b56c91a1a8fcf1d36a74e69dc90cf343d81d8ca760203393a360015f5160206154235f395f51905f525580f35b60405162461bcd60e51b815260206004820152601560248201527443616e6e6f7420627579206f776e2062756e646c6560581b6044820152606490fd5b60405162461bcd60e51b815260206004820152600e60248201526d109d5b991b1948195e1c1a5c995960921b6044820152606490fd5b50602036600319011261039157600435610d9a614a00565b610da2614a38565b808252600860205260408220600681018054610dc460ff821661064d81613cb6565b60058301544211610f215782546001600160a01b03163314610ee35760ff1916600117905560038101805460048301805490938693929091610e0f916001600160a01b031633614e77565b60018101805460028301805493549454875491959394610e409492936001600160a01b039283169383169216614f0a565b549054906001600160a01b0316803b15610b3a576040516323b872dd60e01b81529183918391829084908290610e7b90333060048501614147565b03925af18015610b2f57610ece575b505054906040519182527fd2728f908c7e0feb83c6278798370fcb86b62f236c9dbf1a3f541096c215904060203393a360015f5160206154235f395f51905f525580f35b81610ed891613e20565b610b3a57825f610e8a565b60405162461bcd60e51b815260206004820152601660248201527543616e6e6f7420627579206f776e206c697374696e6760501b6044820152606490fd5b60405162461bcd60e51b815260206004820152600f60248201526e131a5cdd1a5b99c8195e1c1a5c9959608a1b6044820152606490fd5b503461039157604036600319011261039157610fa8600435610f78613cea565b90610fa3610f9e825f525f5160206153e35f395f51905f52602052600160405f20015490565b6149ba565b6150ee565b5080f35b50346103915761010036600319011261039157610fc7613cd4565b60243590610fd3613d00565b906064359160843560a4359060c4359460e43593610fef614a00565b610ff7614a38565b6001600160a01b0316958615801561139b575b61101390613ed0565b61101e821515614169565b61102c610e108610156141b5565b61103b62278d008611156141f6565b82151580611356575b846112c6575b50428111156112bb5761105f90945b85614236565b6001600160a01b0390951695863b156112ac576040516323b872dd60e01b81528981806110918c303360048501614147565b0381838c5af180156112b057611297575b508689899a888860059c9b9c549d8e6110ba8161405f565b6005558a8a8a604051998a956110cf87613de9565b338752602087019182526040870190815260608701918d83526080880193845260a0880194855260c088019586528a60e08901978189526101008a0199828b5261012081019b8c5261014081019c8d5261016081019d8e52610180019d8e528152600b602052604090209c600160a01b6001900390600160a01b60019003905116168d6001600160601b0360a01b905416178d55600160a01b6001900390511660018d0190600160a01b60019003166001600160601b0360a01b8254161790555160028c0155600160a01b6001900390511660038b0190600160a01b60019003166001600160601b0360a01b8254161790555160048a0155516005890155516006880155516007870155600160a01b600190039051166008860190600160a01b60019003166001600160601b0360a01b82541617905551600985015551600a84015551600b830155519061122282613cb6565b600c019061122f91614081565b604051968752602087015260408601526060850152608084015260a083015260c082015282339160e07f0fd83ef55b239e055bc52fa5d64ab69bb06d86731728a3698ef5aca1e7e5f55191a460015f5160206154235f395f51905f5255604051908152602090f35b6112a28a8092613e20565b6112ac575f6110a2565b8880fd5b6040513d8c823e3d90fd5b5061105f4294611059565b82851115611319576112d9575b5f61104a565b828410156112d35760405162461bcd60e51b815260206004820152601060248201526f4275794e6f77203c207265736572766560801b6044820152606490fd5b60405162461bcd60e51b81526020600482015260156024820152744275794e6f77203c3d20737461727420707269636560581b6044820152606490fd5b828410156110445760405162461bcd60e51b815260206004820152601560248201527452657365727665203c20737461727420707269636560581b6044820152606490fd5b50868952600e602052604089205460ff1661100a565b5034610391576020366003190112610391576004356113ce614a00565b6113d6614a38565b80825260096020528160408120600681018054906113fa60ff831661064d81613cb6565b61140a600584015442111561433b565b600183019060018060a01b038254166002850193602085546024604051809581936331a9108f60e11b835260048301525afa918215611597578792611557575b50600191611462906001600160a01b0316331461438b565b60ff191617905560038301805484546004860180546114b3949391926114969230916001600160a01b03908116911661518a565b8354855492549154926001600160a01b0392831692339216614f0a565b54915490546001600160a01b039283169290911690823b15611553576114f3928492836040518096819582946323b872dd60e01b84523360048501614147565b03925af18015610b2f5761153e575b505033907fa7a40af5a1d0c10a3eb94af90cb008170915e8a71a6aaff052794cd762c72fc08380a360015f5160206154235f395f51905f525580f35b8161154891613e20565b610b2b57815f611502565b8380fd5b91506020823d60201161158f575b8161157260209383613e20565b810103126105ea57611462611588600193614377565b925061144a565b3d9150611565565b6040513d89823e3d90fd5b50346103915760407f36cfe22dfcf2d3781d9de6b307d67a5431b45492dad5e70e53dd4af34c25b8496115d436613d88565b818594929452600860205260048286206115f860ff60068301541661064d81613cb6565b61160c60018060a01b038254163314614243565b61161783151561427c565b0190808254925582519182526020820152a280f35b503461039157806003193601126103915760206040517f74f7a545c65c11839a48d7453738b30c295408df2d944516167556759ddc6d068152f35b5034610391578060031936011261039157604080516116868282613e20565b6005815260208101640352e302e360dc1b81528251938492602084525180928160208601528585015e828201840152601f01601f19168101030190f35b5034610391576020366003190112610391576116dd613cd4565b6116e561494b565b6001600160a01b0316808252600e602052604082205460ff161561173e57808252600e60205260408220805460ff191690557f85a3e72f8dd6db3794f93109c3c5f5b79d6112f6979431c45f98b26134b42af28280a280f35b60405162461bcd60e51b815260206004820152600b60248201526a139bdd08185b1b1bddd95960aa1b6044820152606490fd5b5034610391578060031936011261039157602090604051908152f35b5034610391576020366003190112610391576004356117aa614a00565b808252600d602052816040812060068101600281546117cf60ff821661064d81613cb6565b6117e360018060a01b038554163314614243565b60ff19161790556002810190600101825b815481101561188e576118078183614858565b905460039190911b1c6001600160a01b03166118238285614858565b90549060031b1c90803b1561188a576040516323b872dd60e01b8152918691839182908490829061185990333060048501614147565b03925af19081156108f5578591611875575b50506001016117f4565b8161187f91613e20565b61155357835f61186b565b8580fd5b83857fd1d45b4b4591af13ed38f43580b537c744a0dcc71423e862c9779b3ebe65c0fd8280a260015f5160206154235f395f51905f525580f35b5034610391576020366003190112610391576040816101209261010083516118ef81613dcd565b82815282602082015282858201528260608201528260808201528260a08201528260c08201528260e082015201526004358152600c602052206040519061193582613dcd565b80546001600160a01b0390811683526001820154811660208401908152600283015460408501908152600384015490921660608501908152600484015460808601908152600585015460a08701908152600686015460c08801908152600787015460e089019081526008909701546101008901979691959294929060ff166119bc81613cb6565b88526040805199516001600160a01b039081168b529151821660208b015291519189019190915290511660608701525160808601525160a08501525160c08401525160e083015251611a0d81613cb6565b610100820152f35b503461039157602036600319011261039157600435611a32614a00565b808252600b60205260408220600c810190815491611a5660ff841661064d81613cb6565b611a6a60018060a01b038354163314614243565b60088201546001600160a01b0316611b2757600260ff199390931683179055600181015491015483916001600160a01b0316803b15610b3a576040516323b872dd60e01b81529183918391829084908290611aca90333060048501614147565b03925af18015610b2f57611b12575b50807f2809c7e17bf978fbc7194c0a694b638c4215e9140cacc6c38ca36010b45697df91a260015f5160206154235f395f51905f525580f35b81611b1c91613e20565b610b2b57815f611ad9565b60405162461bcd60e51b8152602060048201526008602482015267486173206269647360c01b6044820152606490fd5b5034610391576040366003190112610391576040611b73613cea565b9160043581525f5160206153e35f395f51905f52602052209060018060a01b03165f52602052602060ff60405f2054166040519015158152f35b50346103915760203660031901126103915760209060ff906040906001600160a01b03611bd8613cd4565b168152600e84522054166040519015158152f35b503461039157806003193601126103915760206040516103e88152f35b5034610391578060031936011261039157611c226148dc565b611c2a614a38565b600160ff195f5160206154035f395f51905f525416175f5160206154035f395f51905f52557f62e78cea01bee320cd4e420270b5ea74000d11b0c9f74754ebdbfc544b05a2586020604051338152a180f35b5034610391578060031936011261039157611c95614a00565b338152600f60205260408120548015611cd457611cc090338352600f6020528260408120553361521c565b60015f5160206154235f395f51905f525580f35b60405162461bcd60e51b81526020600482015260136024820152724e6f7468696e6720746f20776974686472617760681b6044820152606490fd5b5034610391576020366003190112610391576040816101a0926101808351611d3681613de9565b82815282602082015282858201528260608201528260808201528260a08201528260c08201528260e08201528261010082015282610120820152826101408201528261016082015201526004358152600b6020522060405190611d9882613de9565b80546001600160a01b03908116835260018201548116602084019081526002830154604085019081526003840154831660608601908152600485015460808701908152600586015460a08801908152600687015460c08901908152600788015460e08a0190815260088901549097166101008a0190815260098901546101208b01908152600a8a01546101408c01908152600b8b01546101608d01908152600c909b01546101808d019b9a91999298939791969495949391929060ff16611e5e81613cb6565b8c52604080519d516001600160a01b039081168f529151821660208f01529151918d01919091529051811660608c0152905160808b0152905160a08a0152905160c0890152905160e088015290511661010086015251610120850152516101408401525161016083015251611ed281613cb6565b610180820152f35b5034610391578060031936011261039157602060ff5f5160206154035f395f51905f5254166040519015158152f35b503461039157602036600319011261039157600435808252600a6020526040822060026005820191611f4783549161065360ff841661064d81613cb6565b60ff19161790557f44838b286d136126893ab0700ce4914f118af5ad28cc6c793764c8e8a331aaee8280a280f35b50611cc0611f8236613d88565b90611f8b614a00565b611f93614a38565b6143d4565b50346103915780600319360112610391577f00000000000000000000000000000000000000000000000000000000000000006001600160a01b03163003611ff05760206040515f5160206153c35f395f51905f528152f35b63703e46dd60e11b8152600490fd5b50604036600319011261039157612014613cd4565b90602435916001600160401b038311610b2b5736602384011215610b2b57826004013561204081613e41565b9361204e6040519586613e20565b81855236602483830101116115535781849260246020930183880137850101526001600160a01b037f000000000000000000000000000000000000000000000000000000000000000016308114908115612223575b50612214578180525f5160206153e35f395f51905f5260209081526040808420335f908152925290205460ff16156121fc576040516352d1902d60e01b8152926001600160a01b0382169190602085600481865afa809585966121c8575b5061211a57634c9c8ce360e01b84526004839052602484fd5b9091845f5160206153c35f395f51905f5281036121b65750823b156121a4575f5160206153c35f395f51905f5280546001600160a01b031916821790557fbc7cd75a20ee27fd9adebab32041f755214dbc6bffa90cc0225b39da2e5c2d3b8480a280511561218b57610fa891615316565b5050346121955780f35b63b398979f60e01b8152600490fd5b634c9c8ce360e01b8452600452602483fd5b632a87526960e21b8552600452602484fd5b9095506020813d6020116121f4575b816121e460209383613e20565b81010312610cbb5751945f612101565b3d91506121d7565b63e2517d3f60e01b8252336004526024829052604482fd5b63703e46dd60e11b8252600482fd5b5f5160206153c35f395f51905f52546001600160a01b0316141590505f6120a3565b50346103915761225436613d88565b9061225d614a00565b612265614a38565b808352600a60205282604081206005810180549061228960ff831661064d81613cb6565b612299600484015442111561433b565b6001830180546040516331a9108f60e11b815260048101899052919390602090839060249082906001600160a01b03165afa918215610cbf5786926123e4575b506001916122f1906001600160a01b0316331461438b565b60ff19161790556002820180548354600385018054612342949391926123259230916001600160a01b03908116911661518a565b835491549054916001600160a01b039182169133918a9116614f0a565b5490546001600160a01b039081169116803b15610b3a5784839161237e93836040518096819582946323b872dd60e01b84523360048501614147565b03925af18015610b2f576123cf575b50506040519182527f73d6332c37be750ea929fcf7844838b0d609eaba18ec5cac83483746525a921060203393a360015f5160206154235f395f51905f525580f35b816123d991613e20565b610b3a57825f61238d565b91506020823d60201161241c575b816123ff60209383613e20565b8101031261188a576122f1612415600193614377565b92506122d9565b3d91506123f2565b50346103915760203660031901126103915761243e613cd4565b61244661494b565b6001600160a01b031661245a811515614099565b808252600e60205260ff6040832054166124ac57808252600e60205260408220805460ff191660011790557fa317c10673baf4f03b3c1041bd5ddbb537d0333a86fec3607c75f9dbb630f48f8280a280f35b60405162461bcd60e51b815260206004820152600f60248201526e105b1c9958591e48185b1b1bddd959608a1b6044820152606490fd5b50346103915760a0366003190112610391576004356001600160401b038111610b2b57612514903690600401613d58565b6024356001600160401b03811161155357612533903690600401613d58565b9261253c613d00565b90606435926084359161254d614a00565b612555614a38565b6001600160a01b0384169687158015612974575b61257290613ed0565b86156129405760148711612908578087036128d15761259286151561427c565b61259d428511613f51565b885b8781106128455750600754976125b48961405f565b600755604051936125c485613d9e565b3385526125d0896142e0565b936125de6040519586613e20565b89855260208501908a60051b81019036821161284157915b8183106128215750505060208501938452612610836142e0565b9261261e6040519485613e20565b808452602084019060051b82019136831161281d57905b82821061280d575050506040848101928352606085019182526080850188815260a0860187815260c087018d81528c8e52600d602052928d20965187546001600160a01b0319166001600160a01b0391909116178755945180519295949193929060018801906001600160401b0383116127f957600160401b83116127f9579060208f926126c88584548186558561430a565b0191528d60208120905b8381106127dc5750505050600286019051908151916001600160401b0383116127c857600160401b83116127c8576020906127128484548186558561430a565b01908d5260208d209c905b8282106127b457505090516003860180546001600160a01b0319166001600160a01b039290921691909117905550516004840155516005830155516020975086947f47ae75b22a367426a8fb84833070a8a68a90a564ff974f7d90a07665d9a8d73d94909390926127989261058a9160069061058483613cb6565b0390a360015f5160206154235f395f51905f5255604051908152f35b80518e83015560019091019060200161271d565b634e487b7160e01b8e52604160045260248efd5b82516001600160a01b0316818301556020909201916001016126d2565b634e487b7160e01b8f52604160045260248ffd5b8135815260209182019101612635565b8c80fd5b82356001600160a01b03811681036108e9578152602092830192016125f6565b8d80fd5b89612851828a866142bc565b356001600160a01b03811690819003610b2b5761286f8385886142bc565b3590803b15610b3a576040516323b872dd60e01b8152918391839182908490829061289f90303360048501614147565b03925af18015610b2f576128b8575b505060010161259f565b816128c291613e20565b6128cd57895f6128ae565b8980fd5b60405162461bcd60e51b815260206004820152600f60248201526e098cadccee8d040dad2e6dac2e8c6d608b1b6044820152606490fd5b60405162461bcd60e51b815260206004820152601060248201526f42756e646c6520746f6f206c6172676560801b6044820152606490fd5b60405162461bcd60e51b815260206004820152600c60248201526b456d7074792062756e646c6560a01b6044820152606490fd5b50878952600e602052604089205460ff16612569565b5034610391578060031936011261039157546040516001600160a01b039091168152602090f35b503461039157602036600319011261039157604060e0916129d0613e5c565b506004358152600960205220604051906129e982613d9e565b80546001600160a01b0390811683526001820154811660208401908152600283015460408501908152600384015490921660608501908152600484015460808601908152600585015460a0870190815260069095015460c08701959491939060ff16612a5481613cb6565b86526040805197516001600160a01b03908116895291518216602089015291519187019190915290511660608501525160808401525160a083015251612a9981613cb6565b60c0820152f35b5034610391578060031936011261039157612ab96148dc565b5f5160206154035f395f51905f525460ff811615612b115760ff19165f5160206154035f395f51905f52557f5db9ee0a495bf2e6ff9c91a7834c1ba4fdd244a5e8aa4e537bd38aeae4b073aa6020604051338152a180f35b638dfc202b60e01b8252600482fd5b503461039157604036600319011261039157612b3a613cea565b336001600160a01b03821603612b5657610fa8906004356150ee565b63334bd91960e11b8252600482fd5b503461039157602036600319011261039157600435612b82614a00565b808252600860205281604081206006810160028154612ba760ff821661064d81613cb6565b612bbb60018060a01b038554163314614243565b60ff19161790556001810154600290910154906001600160a01b0316803b15610b3a576040516323b872dd60e01b81529183918391829084908290612c0590333060048501614147565b03925af18015610b2f57612c4d575b50807f411aee90354c51b1b04cd563fcab2617142a9d50da19232d888547c8a1b7fd8a91a260015f5160206154235f395f51905f525580f35b81612c5791613e20565b610b2b57815f612c14565b503461039157604036600319011261039157610fa8600435612c82613cea565b90612ca8610f9e825f525f5160206153e35f395f51905f52602052600160405f20015490565b614d26565b5034610391576020366003190112610391578060c0604051612cce81613d9e565b82815260606020820152606060408201528260608201528260808201528260a082015201526004358152600d6020526040812060405191612d0e83613d9e565b81546001600160a01b03168352604051600183018054808352908352602080842092949290850191845b818110612ec05750505083612d4e910384613e20565b60208401928352600281019060405191826020825491828152019185526020852090855b818110612eaa5750505082612d88910383613e20565b6040850191825260038101546001600160a01b031660608601908152600482015460808701908152600583015460a0880190815260069093015460c08801949192919060ff16612dd781613cb6565b8552604051966020885261010088019860018060a01b039051166020890152519760e06040890152885180915260206101208901990190875b818110612e8b575050505194601f198789030160608801526020808751998a815201960190975b808910612e73575050516001600160a01b031660808601525160a08501525160c0840152519192508291612e6a81613cb6565b60e08301520390f35b90956020806001928951815201970198019790612e37565b82516001600160a01b03168b5260209a8b019a90920191600101612e10565b8254845260209093019260019283019201612d72565b82546001600160a01b0316845260209093019260019283019201612d38565b503461039157602036600319011261039157600435612efc614a00565b808252600b60205260408220600c810190815491612f2060ff841661064d81613cb6565b600a82015442106131695760ff19909216600117909155600881018054849291906001600160a01b0316612f975750600181015481546002909201546001600160a01b039182169290911690823b1561155357611aca928492836040518096819582946323b872dd60e01b84523060048501614147565b9160058201928354801515908161315b575b501561307a57546003830154600784018054909492612fd4926001600160a01b03908116911661506b565b600181015481546002909201546001600160a01b039182169290911690823b156115535761301c928492836040518096819582946323b872dd60e01b84523060048501614147565b03925af18015610b2f57613065575b50507f21eaf953622ceb1ab2e73e1fea4b2c974df54da902fe6032106f338ded1bd9119160409154905482519182526020820152a2611cc0565b8161306f91613e20565b61155357835f61302b565b6001830180546002850180548654600388015460079098018054909a9950959792956130b99490936001600160a01b0390811693928116929116614f0a565b54835491546001600160a01b039182169290911690823b15611553576130f9928492836040518096819582946323b872dd60e01b84523060048501614147565b03925af18015610b2f57613146575b505060207fc9f72b276a388619c6d185d146697036241880c36654b1a3ffdad07c24038d999160018060a01b039054169354604051908152a3611cc0565b8161315091613e20565b61155357835f613108565b90506007840154105f612fa9565b60405162461bcd60e51b8152602060048201526011602482015270105d58dd1a5bdb881b9bdd08195b991959607a1b6044820152606490fd5b5034610391578060031936011261039157602060405160148152f35b50346103915760c0366003190112610391576131d8613cd4565b90602435906131e5613d00565b916064359160843560a435946131f9614a00565b613201614a38565b6001600160a01b0316958615801561343e575b61321d90613ed0565b613228851515614169565b848210156133f95761323e610e108710156141b5565b61324d62278d008711156141f6565b6001600160a01b031693843b15610b3a576040516323b872dd60e01b815283818061327d88303360048501614147565b0381838a5af180156133ee576133d9575b5060209661337a6132ae600654986132a58a61405f565b60065542614236565b9460088987604051936132c085613dcd565b3385528d85018c815260408087018d8152606088018a8152608089018c815260a08a018e81524260c08c0190815260e08c019889526101008c01888152998852600c6020529490962099518a546001600160a01b03199081166001600160a01b03928316178c55955160018c0180548816918316919091179055925160028b0155905160038a0180549095169216919091179092559051600487015590516005860155516006850155516007840155519161058483613cb6565b604051948552878501526040840152606083015242608083015260a0820152827fd7da3ee8c6a9d27dde7b98086d384a7ed0d840490fec810bc66cb0d1e2f8081660c03393a460015f5160206154235f395f51905f5255604051908152f35b6133e4848092613e20565b610b3a575f61328e565b6040513d86823e3d90fd5b60405162461bcd60e51b815260206004820152601860248201527f456e64207072696365203e3d20737461727420707269636500000000000000006044820152606490fd5b50868352600e602052604083205460ff16613214565b5060203660031901126108e95760043561346c614a00565b613474614a38565b805f52600c60205260405f2090600882019182549261349960ff851661064d81613cb6565b6134a9600683015442101561410d565b81546001600160a01b031633146135c45760016134c583614db7565b60ff199095161790556003810180546134e99085906001600160a01b031633614e77565b60018201805460028401805494549354909492936135199388936001600160a01b03938416939283169216614f0a565b549054906001600160a01b0316803b156108e9576040516323b872dd60e01b8152915f91839182908490829061355490333060048501614147565b03925af180156135b9576135a4575b506040519182527fb2b2e6c852dacb3dbbd713b800fb1974e4eefb16427014507b2d532b55b5ea4660203393a360015f5160206154235f395f51905f525580f35b6135b19193505f90613e20565b5f915f613563565b6040513d5f823e3d90fd5b60405162461bcd60e51b815260206004820152601660248201527521b0b73737ba10313abc9037bbb71030bab1ba34b7b760511b6044820152606490fd5b346108e95760203660031901126108e95760206136396004355f525f5160206153e35f395f51905f52602052600160405f20015490565b604051908152f35b346108e9575f3660031901126108e9576020600154604051908152f35b346108e95760203660031901126108e9576004355f52600c602052602061363960405f2061369660ff60088301541661064d81613cb6565b614db7565b346108e95760603660031901126108e9576136b4613cd4565b6136bc613cea565b90604435905f5160206154435f395f51905f52549260ff8460401c1615936001600160401b038116801590816138a2575b6001149081613898575b15908161388f575b506138805767ffffffffffffffff1981166001175f5160206154435f395f51905f525584613854575b506001600160a01b03821615613822576137929061374a6103e8851115613e92565b6001600160a01b03169161375f831515614099565b613767615272565b61376f615272565b61377881614a5f565b5061378281614afb565b5061378c81614bb4565b50614c6d565b506001600160601b0360a01b5f5416175f556001556001600255600160035560016004556001600555600160065560016007556137cb57005b68ff0000000000000000195f5160206154435f395f51905f5254165f5160206154435f395f51905f52557fc7f505b2f371ae2175ee4913f4499e1f2633a7b5936321eed1cdaeb6115181d2602060405160018152a1005b60405162461bcd60e51b815260206004820152600a6024820152692d32b9379030b236b4b760b11b6044820152606490fd5b68ffffffffffffffffff191668010000000000000001175f5160206154435f395f51905f525584613728565b63f92ee8a960e01b5f5260045ffd5b905015866136ff565b303b1591506136f7565b8691506136ed565b346108e95760803660031901126108e9576138c3613cd4565b506138cc613cea565b506064356001600160401b0381116108e957366023820112156108e95780600401356001600160401b0381116108e957369101602401116108e957604051630a85bd0160e11b8152602090f35b346108e95761392736613d16565b92919390613933614a00565b61393b614a38565b6001600160a01b03851693613968851580159081613b79575b61395d90613ed0565b6106fa841515613f10565b6040516370a0823160e01b8152336004820152602081602481895afa80156135b95783905f90613b43575b61399f92501015613fd7565b604051636eb1769f60e11b8152336004820152306024820152602081604481895afa9081156135b9575f91613b04575b602061058a8888887fbbbace8a71537ffb388117fe5ea77e0cb890abd7cc3d6614e66852f322be01b1898e6105b98b613a0a848d101561401a565b600354988996613a198861405f565b60035560068860405192613a2c84613d9e565b3384528e84019060018060a01b03169c8d825260408501908d82526060860190815260808601918b835260a087019389855260c08801955f87525f5260206009905260405f209760018060a01b039060018060a01b03905116166001600160601b0360a01b89541617885560018060a01b03905116600188019060018060a01b03166001600160601b0360a01b82541617905551600287015560018060a01b03905116600386019060018060a01b03166001600160601b0360a01b825416179055516004850155516005840155519161058483613cb6565b9594939290506020863d602011613b3b575b81613b2360209383613e20565b810103126108e95794519394929391929160206139cf565b3d9150613b16565b50506020813d602011613b71575b81613b5e60209383613e20565b810103126108e9578261399f9151613993565b3d9150613b51565b505f878152600e602052604090205460ff16613954565b346108e95760203660031901126108e9577fd347e206f25a89b917fc9482f1a2d294d749baa4dc9bde7fb495ee11fe4916436040600435613bcf61486d565b613bdd6103e8821115613e92565b600154908060015582519182526020820152a1005b346108e95760203660031901126108e957613c0b613e5c565b506004355f52600860205260e060405f20604051906129e982613d9e565b346108e9575f3660031901126108e95760206040517f6c0757dc3e6b28b2580c03fd9e96c274acf4f99d91fbec9b418fa1d70604ff1c8152f35b346108e95760203660031901126108e9576004359063ffffffff60e01b82168092036108e957602091637965db0b60e01b8114908115613ca5575b5015158152f35b6301ffc9a760e01b14905083613c9e565b60031115613cc057565b634e487b7160e01b5f52602160045260245ffd5b600435906001600160a01b03821682036108e957565b602435906001600160a01b03821682036108e957565b604435906001600160a01b03821682036108e957565b60a09060031901126108e9576004356001600160a01b03811681036108e95790602435906044356001600160a01b03811681036108e957906064359060843590565b9181601f840112156108e9578235916001600160401b0383116108e9576020808501948460051b0101116108e957565b60409060031901126108e9576004359060243590565b60e081019081106001600160401b03821117613db957604052565b634e487b7160e01b5f52604160045260245ffd5b61012081019081106001600160401b03821117613db957604052565b6101a081019081106001600160401b03821117613db957604052565b60c081019081106001600160401b03821117613db957604052565b90601f801991011681019081106001600160401b03821117613db957604052565b6001600160401b038111613db957601f01601f191660200190565b60405190613e6982613d9e565b5f60c0838281528260208201528260408201528260608201528260808201528260a08201520152565b15613e9957565b60405162461bcd60e51b815260206004820152600f60248201526e08ccaca40caf0c6cacac8e640dac2f608b1b6044820152606490fd5b15613ed757565b60405162461bcd60e51b8152602060048201526011602482015270151bdad95b881b9bdd08185b1b1bddd959607a1b6044820152606490fd5b15613f1757565b60405162461bcd60e51b81526020600482015260126024820152710416d6f756e74206d757374206265203e20360741b6044820152606490fd5b15613f5857565b60405162461bcd60e51b8152602060048201526012602482015271115e1c1a5c9e481a5b881d1a19481c185cdd60721b6044820152606490fd5b15613f9957565b60405162461bcd60e51b815260206004820152601660248201527504f6666657273206d75737420757365204552432d32360541b6044820152606490fd5b15613fde57565b60405162461bcd60e51b8152602060048201526014602482015273496e73756666696369656e742062616c616e636560601b6044820152606490fd5b1561402157565b60405162461bcd60e51b8152602060048201526016602482015275496e73756666696369656e7420616c6c6f77616e636560501b6044820152606490fd5b5f19811461406d5760010190565b634e487b7160e01b5f52601160045260245ffd5b9061408b81613cb6565b60ff80198354169116179055565b156140a057565b60405162461bcd60e51b815260206004820152600c60248201526b5a65726f206164647265737360a01b6044820152606490fd5b156140db57565b60405162461bcd60e51b815260206004820152600a6024820152694e6f742061637469766560b01b6044820152606490fd5b1561411457565b60405162461bcd60e51b815260206004820152600b60248201526a139bdd081cdd185c9d195960aa1b6044820152606490fd5b6001600160a01b03918216815291166020820152604081019190915260600190565b1561417057565b60405162461bcd60e51b815260206004820152601760248201527f5374617274207072696365206d757374206265203e20300000000000000000006044820152606490fd5b156141bc57565b60405162461bcd60e51b8152602060048201526012602482015271111d5c985d1a5bdb881d1bdbc81cda1bdc9d60721b6044820152606490fd5b156141fd57565b60405162461bcd60e51b81526020600482015260116024820152704475726174696f6e20746f6f206c6f6e6760781b6044820152606490fd5b9190820180921161406d57565b1561424a57565b60405162461bcd60e51b815260206004820152600a6024820152692737ba1039b2b63632b960b11b6044820152606490fd5b1561428357565b60405162461bcd60e51b815260206004820152601160248201527005072696365206d757374206265203e203607c1b6044820152606490fd5b91908110156142cc5760051b0190565b634e487b7160e01b5f52603260045260245ffd5b6001600160401b038111613db95760051b60200190565b8181029291811591840414171561406d57565b91909182821061431957505050565b5f5260205f2091820191015b818110614330575050565b5f8155600101614325565b1561434257565b60405162461bcd60e51b815260206004820152600d60248201526c13d999995c88195e1c1a5c9959609a1b6044820152606490fd5b51906001600160a01b03821682036108e957565b1561439257565b60405162461bcd60e51b815260206004820152600d60248201526c2737ba1027232a1037bbb732b960991b6044820152606490fd5b9190820391821161406d57565b5f815f52600b60205260405f2092600c84019384546143f960ff821661064d81613cb6565b614409600983015442101561410d565b600a82019283544210156147d75782546001600160a01b0316331461479e5760038301805490926001600160a01b03909116918261474e575034975b600785019283549182155f1461473c5760048701545b8b1061470957600687015493841515806146ff575b61459957505050600885018054600b969591948b945092506001600160a01b03168061457a575b50546001600160a01b03168281614566575b50505580546001600160a01b031916331790550180546144c89061405f565b90556102586144d84283546143c7565b1061450e575b50506040519182527f0e54eff26401bf69b81b26f60bd85ef47f5d85275c1d268d84f68d6897431c4760203393a3565b610258420191824211614552575060208284937f6e912a3a9105bdd2af817ba5adc14e6c127c1035b5b648faa29ca0d58ab8ff4e9355604051908152a25f806144de565b634e487b7160e01b81526011600452602490fd5b614573913090339061518a565b5f826144a9565b815483546145939290916001600160a01b03169061506b565b5f614497565b9092969850839a506001919395975060ff1916179055600b86016145bd815461405f565b9055600886019360018060a01b0385541691826146ee575b505084546001600160a01b0316905082816146e1576145f79150341015614e2b565b8134116146c9575b5580546001600160a01b0319163317905560018201805460028401805494549354909492936146409388936001600160a01b03938416939283169216614f0a565b549054906001600160a01b0316803b156108e9576040516323b872dd60e01b8152915f91839182908490829061467b90333060048501614147565b03925af180156135b9576146b9575b506040519182527fc6e7970c6cb7febd13366f7311d32d8bd060b24e4d5e083159ee42d8f3fdaa8460203393a3565b5f6146c391613e20565b5f61468a565b6146dc6146d683346143c7565b3361521c565b6145ff565b6146dc913090339061518a565b6146f79261506b565b5f80806145d5565b50848c1015614470565b60405162461bcd60e51b815260206004820152600b60248201526a42696420746f6f206c6f7760a81b6044820152606490fd5b6147496014840484614236565b61445b565b346147595797614445565b60405162461bcd60e51b815260206004820152601e60248201527f4e61746976652073656e7420666f72204552432d32302061756374696f6e00006044820152606490fd5b60405162461bcd60e51b815260206004820152601160248201527014d95b1b195c8818d85b9b9bdd08189a59607a1b6044820152606490fd5b60405162461bcd60e51b815260206004820152600d60248201526c105d58dd1a5bdb88195b991959609a1b6044820152606490fd5b1561481357565b60405162461bcd60e51b815260206004820152600b60248201526a2737ba1037b33332b932b960a91b6044820152606490fd5b8054156142cc575f5260205f20905f90565b80548210156142cc575f5260205f2001905f90565b335f9081527f294f263e68a44628370ca7eca46e11f3043892ee36ff7375f356adc9c8117805602052604090205460ff16156148a557565b63e2517d3f60e01b5f52336004527f6c0757dc3e6b28b2580c03fd9e96c274acf4f99d91fbec9b418fa1d70604ff1c60245260445ffd5b335f9081527f75442b0a96088b5456bc4ed01394c96a4feec0f883c9494257d76b96ab1c9b6b602052604090205460ff161561491457565b63e2517d3f60e01b5f52336004527f65d7a28e3265b37a6474929f336521b332c1681b933f6cb9f3376673440d862a60245260445ffd5b335f9081527f75a66f4d81d2c4da10245d688b8c5ed7403c8115cf779b0777e1af3688a10ae1602052604090205460ff161561498357565b63e2517d3f60e01b5f52336004527f74f7a545c65c11839a48d7453738b30c295408df2d944516167556759ddc6d0660245260445ffd5b5f8181525f5160206153e35f395f51905f526020908152604080832033845290915290205460ff16156149ea5750565b63e2517d3f60e01b5f523360045260245260445ffd5b60025f5160206154235f395f51905f525414614a295760025f5160206154235f395f51905f5255565b633ee5aeb560e01b5f5260045ffd5b60ff5f5160206154035f395f51905f525416614a5057565b63d93c066560e01b5f5260045ffd5b6001600160a01b0381165f9081527fb7db2dd08fcb62d0c9e08c51941cae53c267786a0b75803fb7960902fc8ef97d602052604090205460ff16614af6576001600160a01b03165f8181527fb7db2dd08fcb62d0c9e08c51941cae53c267786a0b75803fb7960902fc8ef97d60205260408120805460ff191660011790553391905f5160206153a35f395f51905f528180a4600190565b505f90565b6001600160a01b0381165f9081527f75442b0a96088b5456bc4ed01394c96a4feec0f883c9494257d76b96ab1c9b6b602052604090205460ff16614af6576001600160a01b03165f8181527f75442b0a96088b5456bc4ed01394c96a4feec0f883c9494257d76b96ab1c9b6b60205260408120805460ff191660011790553391907f65d7a28e3265b37a6474929f336521b332c1681b933f6cb9f3376673440d862a905f5160206153a35f395f51905f529080a4600190565b6001600160a01b0381165f9081527f294f263e68a44628370ca7eca46e11f3043892ee36ff7375f356adc9c8117805602052604090205460ff16614af6576001600160a01b03165f8181527f294f263e68a44628370ca7eca46e11f3043892ee36ff7375f356adc9c811780560205260408120805460ff191660011790553391907f6c0757dc3e6b28b2580c03fd9e96c274acf4f99d91fbec9b418fa1d70604ff1c905f5160206153a35f395f51905f529080a4600190565b6001600160a01b0381165f9081527f75a66f4d81d2c4da10245d688b8c5ed7403c8115cf779b0777e1af3688a10ae1602052604090205460ff16614af6576001600160a01b03165f8181527f75a66f4d81d2c4da10245d688b8c5ed7403c8115cf779b0777e1af3688a10ae160205260408120805460ff191660011790553391907f74f7a545c65c11839a48d7453738b30c295408df2d944516167556759ddc6d06905f5160206153a35f395f51905f529080a4600190565b5f8181525f5160206153e35f395f51905f52602090815260408083206001600160a01b038616845290915290205460ff16614db1575f8181525f5160206153e35f395f51905f52602090815260408083206001600160a01b0395909516808452949091528120805460ff19166001179055339291905f5160206153a35f395f51905f529080a4600190565b50505f90565b60078101549081421015614e2257614df9614de06006830154614dda81426143c7565b946143c7565b92614df460056004850154940154846143c7565b6142f7565b918015614e0e57614e0b9204906143c7565b90565b634e487b7160e01b5f52601260045260245ffd5b60059150015490565b15614e3257565b60405162461bcd60e51b815260206004820152601b60248201527f496e73756666696369656e74206e6174697665207061796d656e7400000000006044820152606490fd5b91906001600160a01b031680614eb5575090614e9582341015614e2b565b813411614ea0575050565b614ead614eb392346143c7565b9061521c565b565b34614ec557614eb392309161518a565b60405162461bcd60e51b815260206004820152601e60248201527f4e61746976652073656e7420666f72204552432d3230206c697374696e6700006044820152606490fd5b909291938093612710614f1f600154846142f7565b048061500d575b506040805163152a902d60e11b81526004810192909252602482019290925291829060449082906001600160a01b03165afa90815f915f93614fcb575b50614f7e575b505081614f7557505050565b614eb39261529d565b81151580614fb9575b80614faf575b15614f695792614fa28284614fa7959661529d565b6143c7565b905f80614f69565b5083821115614f8d565b506001600160a01b0381161515614f87565b915091506040813d604011615005575b81614fe860409383613e20565b810103126108e9576020614ffb82614377565b910151915f614f63565b3d9150614fdb565b6040929195506150338161502d6044938860018060a01b035f541661529d565b836143c7565b95919250614f26565b3d15615066573d9061504d82613e41565b9161505b6040519384613e20565b82523d5f602084013e565b606090565b906001600160a01b0316806150e357505f80808085855af161508b61503c565b5015615095575050565b60207fe5f59195cd6bc7dcd4258d037bb2e7138cda6d6752f09a26c1166a2d218971819160018060a01b031692835f52600f825260405f206150d8828254614236565b9055604051908152a2565b90614eb392916152be565b5f8181525f5160206153e35f395f51905f52602090815260408083206001600160a01b038616845290915290205460ff1615614db1575f8181525f5160206153e35f395f51905f52602090815260408083206001600160a01b0395909516808452949091528120805460ff19169055339291907ff6391f5c32d9c69d2a47ea670b442974b53935d1edc7fd64eb21e047a839171b9080a4600190565b6040516323b872dd60e01b5f9081526001600160a01b039384166004529290931660245260449390935260209060648180865af19060015f51148216156151fb575b6040525f606052156151db5750565b635274afe760e01b5f9081526001600160a01b0391909116600452602490fd5b90600181151661521357823b15153d151616906151cc565b503d5f823e3d90fd5b5f80809381935af161522c61503c565b501561523457565b60405162461bcd60e51b815260206004820152601660248201527513985d1a5d99481d1c985b9cd9995c8819985a5b195960521b6044820152606490fd5b60ff5f5160206154435f395f51905f525460401c161561528e57565b631afcd79f60e31b5f5260045ffd5b6001600160a01b039091169190826152b957614eb3925061521c565b614eb3925b916040519163a9059cbb60e01b5f5260018060a01b031660045260245260205f60448180865af19060015f51148216156152fe575b604052156151db5750565b90600181151661521357823b15153d151616906152f3565b905f8091602081519101845af4808061538f575b1561534a5750506040513d81523d5f602083013e60203d82010160405290565b1561536f57639996b31560e01b5f9081526001600160a01b0391909116600452602490fd5b3d15615380576040513d5f823e3d90fd5b63d6bda27560e01b5f5260045ffd5b503d15158061532a5750813b151561532a56fe2f8788117e7eff1d82e926ec794901d17c78024a50270940304540a733656f0d360894a13ba1a3210667c828492db98dca3e2076cc3735a920a3ca505d382bbc02dd7bc7dec4dceedda775e58dd541e08a116c6c53815c0bd028192f7b626800cd5ed15c6e187e77e9aee88184c21f4f2182ab5827cb3b7e07fbedcd63f033009b779b17422d0df92223018b32b4d1fa46e071723d6817e2486d003becc55f00f0c57e16840df040f15088dc2f81fe391c3923bec73e23a9662efc9c229c6a00a2646970667358221220da09e16487094f9edc9d2d6195bcf9fa86c6aa53da6ad728168afc7860a4fac164736f6c634300081c0033f0c57e16840df040f15088dc2f81fe391c3923bec73e23a9662efc9c229c6a00","linkReferences":{}},"methodIdentifiers":{"BPS_DENOMINATOR()":"e1a45218","DEFAULT_ADMIN_ROLE()":"a217fddf","FEE_MANAGER_ROLE()":"05db2f41","MAX_BUNDLE_SIZE()":"2e5a4bde","MAX_PLATFORM_FEE_BPS()":"8d01513c","PAUSER_ROLE()":"e63ab1e9","TOKEN_MANAGER_ROLE()":"c2840e60","UPGRADE_INTERFACE_VERSION()":"ad3cb1cc","acceptCollectionOffer(uint256,uint256)":"4ca04c0d","acceptOffer(uint256)":"c815729d","addPaymentToken(address)":"4a7dc8e0","bid(uint256,uint256)":"598647f8","buy(uint256)":"d96a094a","buyBundle(uint256)":"dd9d82b4","buyDutchAuction(uint256)":"25481f5f","cancelAuction(uint256)":"96b5a755","cancelBundleListing(uint256)":"9b44d86c","cancelCollectionOffer(uint256)":"5b5a2fc1","cancelDutchAuction(uint256)":"ddee8433","cancelListing(uint256)":"305a67a8","cancelOffer(uint256)":"ef706adf","createAuction(address,uint256,address,uint256,uint256,uint256,uint256,uint256)":"d3dd4ba8","createBundleListing(address[],uint256[],address,uint256,uint256)":"48ba028b","createDutchAuction(address,uint256,address,uint256,uint256,uint256)":"27bd6a7e","feeRecipient()":"46904840","getAuction(uint256)":"78bd7935","getBundleListing(uint256)":"2eb46ba5","getCollectionOffer(uint256)":"ff0d92c6","getDutchAuction(uint256)":"9a19d603","getDutchAuctionCurrentPrice(uint256)":"1be66284","getListing(uint256)":"107a274a","getOffer(uint256)":"4579268a","getRoleAdmin(bytes32)":"248a9ca3","grantRole(bytes32,address)":"2f2ff15d","hasRole(bytes32,address)":"91d14854","initialize(address,address,uint256)":"1794bb3c","isPaymentTokenAllowed(address)":"8de1de71","list(address,uint256,address,uint256,uint256)":"f3db41fb","makeCollectionOffer(address,address,uint256,uint256)":"ef10eb3f","makeOffer(address,uint256,address,uint256,uint256)":"1387c2b5","onERC721Received(address,address,uint256,bytes)":"150b7a02","pause()":"8456cb59","paused()":"5c975abb","pendingWithdrawals(address)":"f3f43703","platformFeeBps()":"22dcd13e","proxiableUUID()":"52d1902d","removePaymentToken(address)":"a5125421","renounceRole(bytes32,address)":"36568abe","revokeRole(bytes32,address)":"d547741f","setFeeRecipient(address)":"e74b981b","setPlatformFee(uint256)":"12e8e2c3","settleAuction(uint256)":"2e993611","supportsInterface(bytes4)":"01ffc9a7","unpause()":"3f4ba83a","updateListingPrice(uint256,uint256)":"c4604943","upgradeToAndCall(address,bytes)":"4f1ef286","withdrawPending()":"7edbceb1"},"id":46}